{
  "contractName": "ChildNode",
  "abi": [
    {
      "inputs": [
        {
          "internalType": "address",
          "name": "_owner",
          "type": "address"
        },
        {
          "internalType": "address",
          "name": "_parent",
          "type": "address"
        },
        {
          "internalType": "string",
          "name": "_name",
          "type": "string"
        },
        {
          "internalType": "string",
          "name": "_content",
          "type": "string"
        }
      ],
      "payable": false,
      "stateMutability": "nonpayable",
      "type": "constructor"
    },
    {
      "constant": true,
      "inputs": [],
      "name": "getName",
      "outputs": [
        {
          "internalType": "string",
          "name": "",
          "type": "string"
        }
      ],
      "payable": false,
      "stateMutability": "view",
      "type": "function"
    },
    {
      "constant": true,
      "inputs": [],
      "name": "getContent",
      "outputs": [
        {
          "internalType": "string",
          "name": "",
          "type": "string"
        }
      ],
      "payable": false,
      "stateMutability": "view",
      "type": "function"
    },
    {
      "constant": true,
      "inputs": [],
      "name": "getOwner",
      "outputs": [
        {
          "internalType": "address",
          "name": "",
          "type": "address"
        }
      ],
      "payable": false,
      "stateMutability": "view",
      "type": "function"
    },
    {
      "constant": true,
      "inputs": [],
      "name": "getParent",
      "outputs": [
        {
          "internalType": "address",
          "name": "",
          "type": "address"
        }
      ],
      "payable": false,
      "stateMutability": "view",
      "type": "function"
    },
    {
      "constant": true,
      "inputs": [],
      "name": "getChildren",
      "outputs": [
        {
          "internalType": "address[]",
          "name": "",
          "type": "address[]"
        }
      ],
      "payable": false,
      "stateMutability": "view",
      "type": "function"
    }
  ],
  "bytecode": "0x608060405234801561001057600080fd5b5060405161084f38038061084f8339818101604052608081101561003357600080fd5b8101908080519060200190929190805190602001909291908051604051939291908464010000000082111561006757600080fd5b8382019150602082018581111561007d57600080fd5b825186600182028301116401000000008211171561009a57600080fd5b8083526020830192505050908051906020019080838360005b838110156100ce5780820151818401526020810190506100b3565b50505050905090810190601f1680156100fb5780820380516001836020036101000a031916815260200191505b506040526020018051604051939291908464010000000082111561011e57600080fd5b8382019150602082018581111561013457600080fd5b825186600182028301116401000000008211171561015157600080fd5b8083526020830192505050908051906020019080838360005b8381101561018557808201518184015260208101905061016a565b50505050905090810190601f1680156101b25780820380516001836020036101000a031916815260200191505b50604052505050836000806101000a81548173ffffffffffffffffffffffffffffffffffffffff021916908373ffffffffffffffffffffffffffffffffffffffff16021790555082600160006101000a81548173ffffffffffffffffffffffffffffffffffffffff021916908373ffffffffffffffffffffffffffffffffffffffff1602179055508160049080519060200190610250929190610271565b508060059080519060200190610267929190610271565b5050505050610316565b828054600181600116156101000203166002900490600052602060002090601f016020900481019282601f106102b257805160ff19168380011785556102e0565b828001600101855582156102e0579182015b828111156102df5782518255916020019190600101906102c4565b5b5090506102ed91906102f1565b5090565b61031391905b8082111561030f5760008160009055506001016102f7565b5090565b90565b61052a806103256000396000f3fe608060405234801561001057600080fd5b50600436106100575760003560e01c806317d7de7c1461005c5780634892e8e8146100df57806359016c791461013e57806380f76021146101c1578063893d20e81461020b575b600080fd5b610064610255565b6040518080602001828103825283818151815260200191508051906020019080838360005b838110156100a4578082015181840152602081019050610089565b50505050905090810190601f1680156100d15780820380516001836020036101000a031916815260200191505b509250505060405180910390f35b6100e76102f7565b6040518080602001828103825283818151815260200191508051906020019060200280838360005b8381101561012a57808201518184015260208101905061010f565b505050509050019250505060405180910390f35b610146610400565b6040518080602001828103825283818151815260200191508051906020019080838360005b8381101561018657808201518184015260208101905061016b565b50505050905090810190601f1680156101b35780820380516001836020036101000a031916815260200191505b509250505060405180910390f35b6101c96104a2565b604051808273ffffffffffffffffffffffffffffffffffffffff1673ffffffffffffffffffffffffffffffffffffffff16815260200191505060405180910390f35b6102136104cc565b604051808273ffffffffffffffffffffffffffffffffffffffff1673ffffffffffffffffffffffffffffffffffffffff16815260200191505060405180910390f35b606060048054600181600116156101000203166002900480601f0160208091040260200160405190810160405280929190818152602001828054600181600116156101000203166002900480156102ed5780601f106102c2576101008083540402835291602001916102ed565b820191906000526020600020905b8154815290600101906020018083116102d057829003601f168201915b5050505050905090565b6060600060038054905011610374576040517f08c379a00000000000000000000000000000000000000000000000000000000081526004018080602001828103825260158152602001807f4e6f204368696c6472656e20746f2072657475726e000000000000000000000081525060200191505060405180910390fd5b60038054806020026020016040519081016040528092919081815260200182805480156103f657602002820191906000526020600020905b8160009054906101000a900473ffffffffffffffffffffffffffffffffffffffff1673ffffffffffffffffffffffffffffffffffffffff16815260200190600101908083116103ac575b5050505050905090565b606060058054600181600116156101000203166002900480601f0160208091040260200160405190810160405280929190818152602001828054600181600116156101000203166002900480156104985780601f1061046d57610100808354040283529160200191610498565b820191906000526020600020905b81548152906001019060200180831161047b57829003601f168201915b5050505050905090565b6000600160009054906101000a900473ffffffffffffffffffffffffffffffffffffffff16905090565b60008060009054906101000a900473ffffffffffffffffffffffffffffffffffffffff1690509056fea265627a7a7231582078134799e5a0cef4828daa78af34d0b416a528cd7978e9f6cbabc0f2fe5111e964736f6c63430005100032",
  "source": "pragma solidity ^0.5.16;\n\n// in tests/ truffle console use:\n// const Node1 = await Node.at(await NodeFactory.getNode(accounts[<owner>]))\n// to be able to run commands on the child.\n\nimport \"./Node.sol\";\n\ncontract ChildNode {\n    address owner;\n    address parent;\n    mapping (address => uint) childrenIndex;\n    address[] children;\n    string name;\n    string content;\n\n    constructor(address _owner, address _parent, string memory _name, string memory _content) public {\n        owner = _owner;\n        parent = _parent;\n        name = _name;\n        content = _content;\n    }\n\n    modifier _isOwner() {\n        require(msg.sender == owner, \"Only the owner can perform this action\");\n        _;\n    }\n\n    function getName() public view returns(string memory) {\n        return name;\n    }\n\n    function getContent() public view returns(string memory) {\n        return content;\n    }\n\n    function getOwner() public view returns(address) {\n        return owner;\n    }\n\n    function getParent() public view returns(address) {\n        return parent;\n    }\n\n    function getChildren() public view returns(address[] memory) {\n        require(children.length > 0, \"No Children to return\");\n        return children;\n    }\n\n    /*\n    function changeParent(address _newParent) public _isOwner {\n        Node newParentNode = Node(_newParent);\n        Node oldParentNode = Node(_newParent);\n        require(oldParentNode.getOwner() == msg.sender, \"You must own the old parent Node to change this Node's parent\");\n        require(newParentNode.getOwner() == msg.sender, \"You must own the new parent Node to change this Node's parent\");\n        oldParentNode.abandonChild(address(this));\n        parent = _newParent;\n    }\n\n    function abandonChild(address _childAddress) public _isOwner {\n        require(children.length > 1, \"There are no children to abandon\");\n        uint _childIndex = childrenIndex[_childAddress];\n        uint _lastIndex = childrenIndex.length --;\n        childrenIndex[children[_lastIndex]] = _childIndex;\n        children[_childIndex] = children[_lastIndex];\n    }\n\n    function addChild(address _newChild) public _isOwner {\n        childrenIndex[children.length] = _newChild;\n        children.push(_newChild);\n    }\n    */\n}\n\n/*\nThe goal of a child node is to allow for an imutable spanning tree that can be verified\nby other parentNodes w/o 2 party verification.\nThe owner of the tree should be able to expand the tree (width and depth),\nand invalidate+ignore branches, but NEVER be able to delete nor change a branch.\n */",
  "sourcePath": "/home/13r0ck/Code/Solidity/YVS/contracts/ChildNode.sol",
  "compiler": {
    "name": "solc",
    "version": "0.5.16+commit.9c3226ce.Emscripten.clang"
  },
  "schemaVersion": "3.2.0",
  "updatedAt": "2020-06-16T18:37:12.442Z",
  "devdoc": {
    "methods": {}
  },
  "userdoc": {
    "methods": {}
  }
}