{
  "contractName": "Node",
  "abi": [
    {
      "inputs": [
        {
          "internalType": "address",
          "name": "_owner",
          "type": "address"
        },
        {
          "internalType": "string",
          "name": "_name",
          "type": "string"
        },
        {
          "internalType": "string",
          "name": "_content",
          "type": "string"
        },
        {
          "internalType": "address",
          "name": "_factory",
          "type": "address"
        }
      ],
      "payable": false,
      "stateMutability": "nonpayable",
      "type": "constructor"
    },
    {
      "constant": true,
      "inputs": [],
      "name": "getRelationships",
      "outputs": [
        {
          "internalType": "address[]",
          "name": "",
          "type": "address[]"
        }
      ],
      "payable": false,
      "stateMutability": "view",
      "type": "function"
    },
    {
      "constant": true,
      "inputs": [
        {
          "internalType": "address",
          "name": "_address",
          "type": "address"
        }
      ],
      "name": "getWeight",
      "outputs": [
        {
          "internalType": "uint8",
          "name": "",
          "type": "uint8"
        }
      ],
      "payable": false,
      "stateMutability": "view",
      "type": "function"
    },
    {
      "constant": true,
      "inputs": [],
      "name": "getName",
      "outputs": [
        {
          "internalType": "string",
          "name": "",
          "type": "string"
        }
      ],
      "payable": false,
      "stateMutability": "view",
      "type": "function"
    },
    {
      "constant": true,
      "inputs": [],
      "name": "getContent",
      "outputs": [
        {
          "internalType": "string",
          "name": "",
          "type": "string"
        }
      ],
      "payable": false,
      "stateMutability": "view",
      "type": "function"
    },
    {
      "constant": true,
      "inputs": [],
      "name": "getOwner",
      "outputs": [
        {
          "internalType": "address",
          "name": "",
          "type": "address"
        }
      ],
      "payable": false,
      "stateMutability": "view",
      "type": "function"
    },
    {
      "constant": false,
      "inputs": [
        {
          "internalType": "uint8",
          "name": "_weight",
          "type": "uint8"
        }
      ],
      "name": "setWeight",
      "outputs": [],
      "payable": false,
      "stateMutability": "nonpayable",
      "type": "function"
    },
    {
      "constant": false,
      "inputs": [
        {
          "internalType": "address",
          "name": "_newRelationship",
          "type": "address"
        }
      ],
      "name": "addRelationship",
      "outputs": [],
      "payable": false,
      "stateMutability": "nonpayable",
      "type": "function"
    },
    {
      "constant": false,
      "inputs": [
        {
          "internalType": "string",
          "name": "_newContent",
          "type": "string"
        }
      ],
      "name": "setContent",
      "outputs": [],
      "payable": false,
      "stateMutability": "nonpayable",
      "type": "function"
    },
    {
      "constant": false,
      "inputs": [
        {
          "internalType": "string",
          "name": "_newName",
          "type": "string"
        }
      ],
      "name": "setName",
      "outputs": [],
      "payable": false,
      "stateMutability": "nonpayable",
      "type": "function"
    },
    {
      "constant": false,
      "inputs": [
        {
          "internalType": "address",
          "name": "_newOwner",
          "type": "address"
        }
      ],
      "name": "setOwner",
      "outputs": [],
      "payable": false,
      "stateMutability": "nonpayable",
      "type": "function"
    },
    {
      "constant": false,
      "inputs": [
        {
          "internalType": "uint256",
          "name": "_index",
          "type": "uint256"
        }
      ],
      "name": "removeRelationship",
      "outputs": [],
      "payable": false,
      "stateMutability": "nonpayable",
      "type": "function"
    }
  ],
  "bytecode": "0x60806040523480156200001157600080fd5b506040516200153838038062001538833981810160405260808110156200003757600080fd5b8101908080519060200190929190805160405193929190846401000000008211156200006257600080fd5b838201915060208201858111156200007957600080fd5b82518660018202830111640100000000821117156200009757600080fd5b8083526020830192505050908051906020019080838360005b83811015620000cd578082015181840152602081019050620000b0565b50505050905090810190601f168015620000fb5780820380516001836020036101000a031916815260200191505b50604052602001805160405193929190846401000000008211156200011f57600080fd5b838201915060208201858111156200013657600080fd5b82518660018202830111640100000000821117156200015457600080fd5b8083526020830192505050908051906020019080838360005b838110156200018a5780820151818401526020810190506200016d565b50505050905090810190601f168015620001b85780820380516001836020036101000a031916815260200191505b506040526020018051906020019092919050505083600260006101000a81548173ffffffffffffffffffffffffffffffffffffffff021916908373ffffffffffffffffffffffffffffffffffffffff1602179055508260039080519060200190620002259291906200028a565b5081600490805190602001906200023e9291906200028a565b5080600560006101000a81548173ffffffffffffffffffffffffffffffffffffffff021916908373ffffffffffffffffffffffffffffffffffffffff1602179055505050505062000339565b828054600181600116156101000203166002900490600052602060002090601f016020900481019282601f10620002cd57805160ff1916838001178555620002fe565b82800160010185558215620002fe579182015b82811115620002fd578251825591602001919060010190620002e0565b5b5090506200030d919062000311565b5090565b6200033691905b808211156200033257600081600090555060010162000318565b5090565b90565b6111ef80620003496000396000f3fe608060405234801561001057600080fd5b50600436106100a95760003560e01c806379bda9371161007157806379bda937146102a2578063893d20e8146102e6578063ac6c525114610330578063c47f00271461038e578063d088cf7b14610407578063db2e867c14610466576100a9565b806313af4035146100ae57806317d7de7c146100f25780632c983a29146101755780633be8fd6a146101a657806359016c791461021f575b600080fd5b6100f0600480360360208110156100c457600080fd5b81019080803573ffffffffffffffffffffffffffffffffffffffff169060200190929190505050610494565b005b6100fa61057e565b6040518080602001828103825283818151815260200191508051906020019080838360005b8381101561013a57808201518184015260208101905061011f565b50505050905090810190601f1680156101675780820380516001836020036101000a031916815260200191505b509250505060405180910390f35b6101a46004803603602081101561018b57600080fd5b81019080803560ff169060200190929190505050610620565b005b61021d600480360360208110156101bc57600080fd5b81019080803590602001906401000000008111156101d957600080fd5b8201836020820111156101eb57600080fd5b8035906020019184600183028401116401000000008311171561020d57600080fd5b909192939192939050505061077d565b005b610227610839565b6040518080602001828103825283818151815260200191508051906020019080838360005b8381101561026757808201518184015260208101905061024c565b50505050905090810190601f1680156102945780820380516001836020036101000a031916815260200191505b509250505060405180910390f35b6102e4600480360360208110156102b857600080fd5b81019080803573ffffffffffffffffffffffffffffffffffffffff1690602001909291905050506108db565b005b6102ee610c75565b604051808273ffffffffffffffffffffffffffffffffffffffff1673ffffffffffffffffffffffffffffffffffffffff16815260200191505060405180910390f35b6103726004803603602081101561034657600080fd5b81019080803573ffffffffffffffffffffffffffffffffffffffff169060200190929190505050610c9f565b604051808260ff1660ff16815260200191505060405180910390f35b610405600480360360208110156103a457600080fd5b81019080803590602001906401000000008111156103c157600080fd5b8201836020820111156103d357600080fd5b803590602001918460018302840111640100000000831117156103f557600080fd5b9091929391929390505050610cf4565b005b61040f610db0565b6040518080602001828103825283818151815260200191508051906020019060200280838360005b83811015610452578082015181840152602081019050610437565b505050509050019250505060405180910390f35b6104926004803603602081101561047c57600080fd5b8101908080359060200190929190505050610e3e565b005b600260009054906101000a900473ffffffffffffffffffffffffffffffffffffffff1673ffffffffffffffffffffffffffffffffffffffff163373ffffffffffffffffffffffffffffffffffffffff161461053a576040517f08c379a000000000000000000000000000000000000000000000000000000000815260040180806020018281038252602681526020018061114f6026913960400191505060405180910390fd5b80600260006101000a81548173ffffffffffffffffffffffffffffffffffffffff021916908373ffffffffffffffffffffffffffffffffffffffff16021790555050565b606060038054600181600116156101000203166002900480601f0160208091040260200160405190810160405280929190818152602001828054600181600116156101000203166002900480156106165780601f106105eb57610100808354040283529160200191610616565b820191906000526020600020905b8154815290600101906020018083116105f957829003601f168201915b5050505050905090565b60648160ff161061067c576040517f08c379a00000000000000000000000000000000000000000000000000000000081526004018080602001828103825260228152602001806111756022913960400191505060405180910390fd5b600260009054906101000a900473ffffffffffffffffffffffffffffffffffffffff1673ffffffffffffffffffffffffffffffffffffffff163373ffffffffffffffffffffffffffffffffffffffff161415610723576040517f08c379a000000000000000000000000000000000000000000000000000000000815260040180806020018281038252602e815260200180611121602e913960400191505060405180910390fd5b806000803373ffffffffffffffffffffffffffffffffffffffff1673ffffffffffffffffffffffffffffffffffffffff16815260200190815260200160002060006101000a81548160ff021916908360ff16021790555050565b600260009054906101000a900473ffffffffffffffffffffffffffffffffffffffff1673ffffffffffffffffffffffffffffffffffffffff163373ffffffffffffffffffffffffffffffffffffffff1614610823576040517f08c379a000000000000000000000000000000000000000000000000000000000815260040180806020018281038252602681526020018061114f6026913960400191505060405180910390fd5b818160049190610834929190611026565b505050565b606060048054600181600116156101000203166002900480601f0160208091040260200160405190810160405280929190818152602001828054600181600116156101000203166002900480156108d15780601f106108a6576101008083540402835291602001916108d1565b820191906000526020600020905b8154815290600101906020018083116108b457829003601f168201915b5050505050905090565b600260009054906101000a900473ffffffffffffffffffffffffffffffffffffffff1673ffffffffffffffffffffffffffffffffffffffff163373ffffffffffffffffffffffffffffffffffffffff1614610981576040517f08c379a000000000000000000000000000000000000000000000000000000000815260040180806020018281038252602681526020018061114f6026913960400191505060405180910390fd5b3073ffffffffffffffffffffffffffffffffffffffff168173ffffffffffffffffffffffffffffffffffffffff161415610a06576040517f08c379a00000000000000000000000000000000000000000000000000000000081526004018080602001828103825260298152602001806110f86029913960400191505060405180910390fd5b60008190506000600560009054906101000a900473ffffffffffffffffffffffffffffffffffffffff1690508273ffffffffffffffffffffffffffffffffffffffff168173ffffffffffffffffffffffffffffffffffffffff16639d2090488473ffffffffffffffffffffffffffffffffffffffff1663893d20e86040518163ffffffff1660e01b815260040160206040518083038186803b158015610aab57600080fd5b505afa158015610abf573d6000803e3d6000fd5b505050506040513d6020811015610ad557600080fd5b81019080805190602001909291905050506040518263ffffffff1660e01b8152600401808273ffffffffffffffffffffffffffffffffffffffff1673ffffffffffffffffffffffffffffffffffffffff16815260200191505060206040518083038186803b158015610b4657600080fd5b505afa158015610b5a573d6000803e3d6000fd5b505050506040513d6020811015610b7057600080fd5b810190808051906020019092919050505073ffffffffffffffffffffffffffffffffffffffff1614610c0a576040517f08c379a00000000000000000000000000000000000000000000000000000000081526004018080602001828103825260188152602001807f53656e646572206d75737420626520746865206f776e6572000000000000000081525060200191505060405180910390fd5b60018390806001815401808255809150509060018203906000526020600020016000909192909190916101000a81548173ffffffffffffffffffffffffffffffffffffffff021916908373ffffffffffffffffffffffffffffffffffffffff16021790555050505050565b6000600260009054906101000a900473ffffffffffffffffffffffffffffffffffffffff16905090565b60008060008373ffffffffffffffffffffffffffffffffffffffff1673ffffffffffffffffffffffffffffffffffffffff16815260200190815260200160002060009054906101000a900460ff169050919050565b600260009054906101000a900473ffffffffffffffffffffffffffffffffffffffff1673ffffffffffffffffffffffffffffffffffffffff163373ffffffffffffffffffffffffffffffffffffffff1614610d9a576040517f08c379a000000000000000000000000000000000000000000000000000000000815260040180806020018281038252602681526020018061114f6026913960400191505060405180910390fd5b818160039190610dab929190611026565b505050565b60606001805480602002602001604051908101604052809291908181526020018280548015610e3457602002820191906000526020600020905b8160009054906101000a900473ffffffffffffffffffffffffffffffffffffffff1673ffffffffffffffffffffffffffffffffffffffff1681526020019060010190808311610dea575b5050505050905090565b600260009054906101000a900473ffffffffffffffffffffffffffffffffffffffff1673ffffffffffffffffffffffffffffffffffffffff163373ffffffffffffffffffffffffffffffffffffffff1614610ee4576040517f08c379a000000000000000000000000000000000000000000000000000000000815260040180806020018281038252602681526020018061114f6026913960400191505060405180910390fd5b600060018054905011610f42576040517f08c379a00000000000000000000000000000000000000000000000000000000081526004018080602001828103825260248152602001806111976024913960400191505060405180910390fd5b60006001805480919060019003610f5991906110a6565b905060018181548110610f6857fe5b9060005260206000200160009054906101000a900473ffffffffffffffffffffffffffffffffffffffff1660018381548110610fa057fe5b9060005260206000200160006101000a81548173ffffffffffffffffffffffffffffffffffffffff021916908373ffffffffffffffffffffffffffffffffffffffff16021790555060018181548110610ff557fe5b9060005260206000200160006101000a81549073ffffffffffffffffffffffffffffffffffffffff02191690555050565b828054600181600116156101000203166002900490600052602060002090601f016020900481019282601f1061106757803560ff1916838001178555611095565b82800160010185558215611095579182015b82811115611094578235825591602001919060010190611079565b5b5090506110a291906110d2565b5090565b8154818355818111156110cd578183600052602060002091820191016110cc91906110d2565b5b505050565b6110f491905b808211156110f05760008160009055506001016110d8565b5090565b9056fe43616e6e6f742063726561746520612072656c6174696f6e736869702077697468206f6e6573656c665765696768742063616e206f6e6c79206265206d6f6469666965642062792072656c6174656420616464726573734f6e6c7920746865206f776e65722063616e20706572666f726d207468697320616374696f6e5765696768742063616e206f6e6c7920766172792066726f6d2030202d3e20313030546865726520617265206e6f2072656c6174696f6e736869707320746f2072656d6f7665a265627a7a723158205ba089dd796333c77e5681a901b271b409be34fbbcc1b26922e1d94e9021742f64736f6c63430005100032",
  "source": "pragma solidity ^0.5.16;\n\n// in tests/ truffle console use:\n// const Node1 = await Node.at(await NodeFactory.getNode(accounts[<owner>]))\n// to be able to run commands on the child.\nimport \"./NodeFactory.sol\";\n\ncontract Node {\n    mapping (address => uint8) private weight;\n    address[] private relationships;\n    address owner;\n    string name;\n    string content;\n    address factory;\n\n    constructor(address _owner, string memory _name, string memory _content, address _factory) public {\n        owner = _owner;\n        name = _name;\n        content = _content;\n        factory = _factory;\n        /*\n        factory is the address of the facotry contract that created this node (NodeFactory.sol)\n        We save this simple so that any time that a node is referenced it is possible to check that that referenced node is valid\n        This is necessary so that Nodes cannot have relationships with contracts that are not within the YVS network\n        This prevents the creation of false Nodes that have the same values as a true node and lie that they have a strong relationship with that node,\n        or to even use that false node to validate ones data in a way that can be confused by a users client\n\n        So, verifying that a node is registed properly is necessary. Though I do not like this current implementation as it requires that all nodes\n        store redendant data. Which creates an uneccessary expense and burden on the eth network\n        */\n    }\n\n    modifier _isOwner() {\n        require(msg.sender == owner, \"Only the owner can perform this action\");\n        _;\n    }\n\n    function getRelationships() public view returns(address[] memory) {\n        return relationships;\n    }\n\n    function getWeight(address _address) public view returns(uint8) {\n        return weight[_address];\n    }\n\n    function getName() public view returns(string memory) {\n        return name;\n    }\n\n    function getContent() public view returns(string memory) {\n        return content;\n    }\n\n    function getOwner() public view returns(address) {\n        return owner;\n    }\n\n    function setWeight(uint8 _weight) external {\n        require(_weight < 100, \"Weight can only vary from 0 -> 100\");\n        require(msg.sender != owner, \"Weight can only be modified by related address\");\n        weight[msg.sender] = _weight;\n    }\n\n    function addRelationship(address _newRelationship) external _isOwner {\n        require(_newRelationship != address(this), \"Cannot create a relationship with oneself\");\n        // method is be broken below this line :)\n        Node node = Node(_newRelationship);\n        NodeFactory nf = NodeFactory(factory);\n        require(nf.getNode(node.getOwner()) == _newRelationship, 'Sender must be the owner');\n        // The relationship needs to be a valid node.\n        relationships.push(_newRelationship);\n    }\n\n    function setContent(string calldata _newContent) external _isOwner {\n        content = _newContent;\n    }\n\n    function setName(string calldata _newName) external _isOwner {\n        name = _newName;\n    }\n\n    function setOwner(address _newOwner) external _isOwner {\n        owner = _newOwner;\n    }\n\n    function removeRelationship(uint _index) external _isOwner {\n        require(relationships.length > 0, \"There are no relationships to remove\");\n        uint _lastIndex = relationships.length --;\n        relationships[_index] = relationships[_lastIndex];\n        delete relationships[_lastIndex];\n    }\n}",
  "sourcePath": "/home/brock/Code/Solidity/yvs/contracts/Node.sol",
  "compiler": {
    "name": "solc",
    "version": "0.5.16+commit.9c3226ce.Emscripten.clang"
  },
  "schemaVersion": "3.2.1",
  "updatedAt": "2020-07-09T03:47:09.163Z",
  "devdoc": {
    "methods": {}
  },
  "userdoc": {
    "methods": {}
  }
}