{
  "contractName": "NodeFactory",
  "abi": [
    {
      "constant": false,
      "inputs": [
        {
          "internalType": "string",
          "name": "_name",
          "type": "string"
        },
        {
          "internalType": "string",
          "name": "_content",
          "type": "string"
        }
      ],
      "name": "deploy",
      "outputs": [],
      "payable": false,
      "stateMutability": "nonpayable",
      "type": "function"
    },
    {
      "constant": true,
      "inputs": [
        {
          "internalType": "address",
          "name": "_ownerAddress",
          "type": "address"
        }
      ],
      "name": "getNode",
      "outputs": [
        {
          "internalType": "address",
          "name": "",
          "type": "address"
        }
      ],
      "payable": false,
      "stateMutability": "view",
      "type": "function"
    }
  ],
  "bytecode": "0x608060405234801561001057600080fd5b506119f1806100206000396000f3fe608060405234801561001057600080fd5b50600436106100365760003560e01c80639d2090481461003b578063b5488487146100bf575b600080fd5b61007d6004803603602081101561005157600080fd5b81019080803573ffffffffffffffffffffffffffffffffffffffff16906020019092919050505061018d565b604051808273ffffffffffffffffffffffffffffffffffffffff1673ffffffffffffffffffffffffffffffffffffffff16815260200191505060405180910390f35b61018b600480360360408110156100d557600080fd5b81019080803590602001906401000000008111156100f257600080fd5b82018360208201111561010457600080fd5b8035906020019184600183028401116401000000008311171561012657600080fd5b90919293919293908035906020019064010000000081111561014757600080fd5b82018360208201111561015957600080fd5b8035906020019184600183028401116401000000008311171561017b57600080fd5b90919293919293905050506101f5565b005b60008060008373ffffffffffffffffffffffffffffffffffffffff1673ffffffffffffffffffffffffffffffffffffffff16815260200190815260200160002060009054906101000a900473ffffffffffffffffffffffffffffffffffffffff169050919050565b600073ffffffffffffffffffffffffffffffffffffffff166000803373ffffffffffffffffffffffffffffffffffffffff1673ffffffffffffffffffffffffffffffffffffffff16815260200190815260200160002060009054906101000a900473ffffffffffffffffffffffffffffffffffffffff1673ffffffffffffffffffffffffffffffffffffffff16146102d8576040517f08c379a000000000000000000000000000000000000000000000000000000000815260040180806020018281038252602181526020018061199c6021913960400191505060405180910390fd5b3384848484306040516102ea90610456565b808773ffffffffffffffffffffffffffffffffffffffff1673ffffffffffffffffffffffffffffffffffffffff16815260200180602001806020018473ffffffffffffffffffffffffffffffffffffffff1673ffffffffffffffffffffffffffffffffffffffff1681526020018381038352888882818152602001925080828437600081840152601f19601f8201169050808301925050508381038252868682818152602001925080828437600081840152601f19601f82011690508083019250505098505050505050505050604051809103906000f0801580156103d3573d6000803e3d6000fd5b506000803373ffffffffffffffffffffffffffffffffffffffff1673ffffffffffffffffffffffffffffffffffffffff16815260200190815260200160002060006101000a81548173ffffffffffffffffffffffffffffffffffffffff021916908373ffffffffffffffffffffffffffffffffffffffff16021790555050505050565b611538806104648339019056fe60806040523480156200001157600080fd5b506040516200153838038062001538833981810160405260808110156200003757600080fd5b8101908080519060200190929190805160405193929190846401000000008211156200006257600080fd5b838201915060208201858111156200007957600080fd5b82518660018202830111640100000000821117156200009757600080fd5b8083526020830192505050908051906020019080838360005b83811015620000cd578082015181840152602081019050620000b0565b50505050905090810190601f168015620000fb5780820380516001836020036101000a031916815260200191505b50604052602001805160405193929190846401000000008211156200011f57600080fd5b838201915060208201858111156200013657600080fd5b82518660018202830111640100000000821117156200015457600080fd5b8083526020830192505050908051906020019080838360005b838110156200018a5780820151818401526020810190506200016d565b50505050905090810190601f168015620001b85780820380516001836020036101000a031916815260200191505b506040526020018051906020019092919050505083600260006101000a81548173ffffffffffffffffffffffffffffffffffffffff021916908373ffffffffffffffffffffffffffffffffffffffff1602179055508260039080519060200190620002259291906200028a565b5081600490805190602001906200023e9291906200028a565b5080600560006101000a81548173ffffffffffffffffffffffffffffffffffffffff021916908373ffffffffffffffffffffffffffffffffffffffff1602179055505050505062000339565b828054600181600116156101000203166002900490600052602060002090601f016020900481019282601f10620002cd57805160ff1916838001178555620002fe565b82800160010185558215620002fe579182015b82811115620002fd578251825591602001919060010190620002e0565b5b5090506200030d919062000311565b5090565b6200033691905b808211156200033257600081600090555060010162000318565b5090565b90565b6111ef80620003496000396000f3fe608060405234801561001057600080fd5b50600436106100a95760003560e01c806379bda9371161007157806379bda937146102a2578063893d20e8146102e6578063ac6c525114610330578063c47f00271461038e578063d088cf7b14610407578063db2e867c14610466576100a9565b806313af4035146100ae57806317d7de7c146100f25780632c983a29146101755780633be8fd6a146101a657806359016c791461021f575b600080fd5b6100f0600480360360208110156100c457600080fd5b81019080803573ffffffffffffffffffffffffffffffffffffffff169060200190929190505050610494565b005b6100fa61057e565b6040518080602001828103825283818151815260200191508051906020019080838360005b8381101561013a57808201518184015260208101905061011f565b50505050905090810190601f1680156101675780820380516001836020036101000a031916815260200191505b509250505060405180910390f35b6101a46004803603602081101561018b57600080fd5b81019080803560ff169060200190929190505050610620565b005b61021d600480360360208110156101bc57600080fd5b81019080803590602001906401000000008111156101d957600080fd5b8201836020820111156101eb57600080fd5b8035906020019184600183028401116401000000008311171561020d57600080fd5b909192939192939050505061077d565b005b610227610839565b6040518080602001828103825283818151815260200191508051906020019080838360005b8381101561026757808201518184015260208101905061024c565b50505050905090810190601f1680156102945780820380516001836020036101000a031916815260200191505b509250505060405180910390f35b6102e4600480360360208110156102b857600080fd5b81019080803573ffffffffffffffffffffffffffffffffffffffff1690602001909291905050506108db565b005b6102ee610c75565b604051808273ffffffffffffffffffffffffffffffffffffffff1673ffffffffffffffffffffffffffffffffffffffff16815260200191505060405180910390f35b6103726004803603602081101561034657600080fd5b81019080803573ffffffffffffffffffffffffffffffffffffffff169060200190929190505050610c9f565b604051808260ff1660ff16815260200191505060405180910390f35b610405600480360360208110156103a457600080fd5b81019080803590602001906401000000008111156103c157600080fd5b8201836020820111156103d357600080fd5b803590602001918460018302840111640100000000831117156103f557600080fd5b9091929391929390505050610cf4565b005b61040f610db0565b6040518080602001828103825283818151815260200191508051906020019060200280838360005b83811015610452578082015181840152602081019050610437565b505050509050019250505060405180910390f35b6104926004803603602081101561047c57600080fd5b8101908080359060200190929190505050610e3e565b005b600260009054906101000a900473ffffffffffffffffffffffffffffffffffffffff1673ffffffffffffffffffffffffffffffffffffffff163373ffffffffffffffffffffffffffffffffffffffff161461053a576040517f08c379a000000000000000000000000000000000000000000000000000000000815260040180806020018281038252602681526020018061114f6026913960400191505060405180910390fd5b80600260006101000a81548173ffffffffffffffffffffffffffffffffffffffff021916908373ffffffffffffffffffffffffffffffffffffffff16021790555050565b606060038054600181600116156101000203166002900480601f0160208091040260200160405190810160405280929190818152602001828054600181600116156101000203166002900480156106165780601f106105eb57610100808354040283529160200191610616565b820191906000526020600020905b8154815290600101906020018083116105f957829003601f168201915b5050505050905090565b60648160ff161061067c576040517f08c379a00000000000000000000000000000000000000000000000000000000081526004018080602001828103825260228152602001806111756022913960400191505060405180910390fd5b600260009054906101000a900473ffffffffffffffffffffffffffffffffffffffff1673ffffffffffffffffffffffffffffffffffffffff163373ffffffffffffffffffffffffffffffffffffffff161415610723576040517f08c379a000000000000000000000000000000000000000000000000000000000815260040180806020018281038252602e815260200180611121602e913960400191505060405180910390fd5b806000803373ffffffffffffffffffffffffffffffffffffffff1673ffffffffffffffffffffffffffffffffffffffff16815260200190815260200160002060006101000a81548160ff021916908360ff16021790555050565b600260009054906101000a900473ffffffffffffffffffffffffffffffffffffffff1673ffffffffffffffffffffffffffffffffffffffff163373ffffffffffffffffffffffffffffffffffffffff1614610823576040517f08c379a000000000000000000000000000000000000000000000000000000000815260040180806020018281038252602681526020018061114f6026913960400191505060405180910390fd5b818160049190610834929190611026565b505050565b606060048054600181600116156101000203166002900480601f0160208091040260200160405190810160405280929190818152602001828054600181600116156101000203166002900480156108d15780601f106108a6576101008083540402835291602001916108d1565b820191906000526020600020905b8154815290600101906020018083116108b457829003601f168201915b5050505050905090565b600260009054906101000a900473ffffffffffffffffffffffffffffffffffffffff1673ffffffffffffffffffffffffffffffffffffffff163373ffffffffffffffffffffffffffffffffffffffff1614610981576040517f08c379a000000000000000000000000000000000000000000000000000000000815260040180806020018281038252602681526020018061114f6026913960400191505060405180910390fd5b3073ffffffffffffffffffffffffffffffffffffffff168173ffffffffffffffffffffffffffffffffffffffff161415610a06576040517f08c379a00000000000000000000000000000000000000000000000000000000081526004018080602001828103825260298152602001806110f86029913960400191505060405180910390fd5b60008190506000600560009054906101000a900473ffffffffffffffffffffffffffffffffffffffff1690508273ffffffffffffffffffffffffffffffffffffffff168173ffffffffffffffffffffffffffffffffffffffff16639d2090488473ffffffffffffffffffffffffffffffffffffffff1663893d20e86040518163ffffffff1660e01b815260040160206040518083038186803b158015610aab57600080fd5b505afa158015610abf573d6000803e3d6000fd5b505050506040513d6020811015610ad557600080fd5b81019080805190602001909291905050506040518263ffffffff1660e01b8152600401808273ffffffffffffffffffffffffffffffffffffffff1673ffffffffffffffffffffffffffffffffffffffff16815260200191505060206040518083038186803b158015610b4657600080fd5b505afa158015610b5a573d6000803e3d6000fd5b505050506040513d6020811015610b7057600080fd5b810190808051906020019092919050505073ffffffffffffffffffffffffffffffffffffffff1614610c0a576040517f08c379a00000000000000000000000000000000000000000000000000000000081526004018080602001828103825260188152602001807f53656e646572206d75737420626520746865206f776e6572000000000000000081525060200191505060405180910390fd5b60018390806001815401808255809150509060018203906000526020600020016000909192909190916101000a81548173ffffffffffffffffffffffffffffffffffffffff021916908373ffffffffffffffffffffffffffffffffffffffff16021790555050505050565b6000600260009054906101000a900473ffffffffffffffffffffffffffffffffffffffff16905090565b60008060008373ffffffffffffffffffffffffffffffffffffffff1673ffffffffffffffffffffffffffffffffffffffff16815260200190815260200160002060009054906101000a900460ff169050919050565b600260009054906101000a900473ffffffffffffffffffffffffffffffffffffffff1673ffffffffffffffffffffffffffffffffffffffff163373ffffffffffffffffffffffffffffffffffffffff1614610d9a576040517f08c379a000000000000000000000000000000000000000000000000000000000815260040180806020018281038252602681526020018061114f6026913960400191505060405180910390fd5b818160039190610dab929190611026565b505050565b60606001805480602002602001604051908101604052809291908181526020018280548015610e3457602002820191906000526020600020905b8160009054906101000a900473ffffffffffffffffffffffffffffffffffffffff1673ffffffffffffffffffffffffffffffffffffffff1681526020019060010190808311610dea575b5050505050905090565b600260009054906101000a900473ffffffffffffffffffffffffffffffffffffffff1673ffffffffffffffffffffffffffffffffffffffff163373ffffffffffffffffffffffffffffffffffffffff1614610ee4576040517f08c379a000000000000000000000000000000000000000000000000000000000815260040180806020018281038252602681526020018061114f6026913960400191505060405180910390fd5b600060018054905011610f42576040517f08c379a00000000000000000000000000000000000000000000000000000000081526004018080602001828103825260248152602001806111976024913960400191505060405180910390fd5b60006001805480919060019003610f5991906110a6565b905060018181548110610f6857fe5b9060005260206000200160009054906101000a900473ffffffffffffffffffffffffffffffffffffffff1660018381548110610fa057fe5b9060005260206000200160006101000a81548173ffffffffffffffffffffffffffffffffffffffff021916908373ffffffffffffffffffffffffffffffffffffffff16021790555060018181548110610ff557fe5b9060005260206000200160006101000a81549073ffffffffffffffffffffffffffffffffffffffff02191690555050565b828054600181600116156101000203166002900490600052602060002090601f016020900481019282601f1061106757803560ff1916838001178555611095565b82800160010185558215611095579182015b82811115611094578235825591602001919060010190611079565b5b5090506110a291906110d2565b5090565b8154818355818111156110cd578183600052602060002091820191016110cc91906110d2565b5b505050565b6110f491905b808211156110f05760008160009055506001016110d8565b5090565b9056fe43616e6e6f742063726561746520612072656c6174696f6e736869702077697468206f6e6573656c665765696768742063616e206f6e6c79206265206d6f6469666965642062792072656c6174656420616464726573734f6e6c7920746865206f776e65722063616e20706572666f726d207468697320616374696f6e5765696768742063616e206f6e6c7920766172792066726f6d2030202d3e20313030546865726520617265206e6f2072656c6174696f6e736869707320746f2072656d6f7665a265627a7a723158205ba089dd796333c77e5681a901b271b409be34fbbcc1b26922e1d94e9021742f64736f6c634300051000324d6178204e6f64657320666f72206d73672e73656e64657220616464726573732ea265627a7a72315820512fbb31ff806f349ca0fda0afe4220d9091a86c47874a4ac0844c910e8d2e5864736f6c63430005100032",
  "source": "pragma solidity ^0.5.16;\n\nimport './Node.sol';\n\ncontract NodeFactory {\n    mapping (address => Node) private nodes;\n\n    function deploy(string calldata _name, string calldata _content) external {\n        require(nodes[msg.sender] == Node(0), \"Max Nodes for msg.sender address.\");\n        nodes[msg.sender] = new Node(msg.sender, _name, _content, address(this));\n    }\n\n    function getNode(address _ownerAddress) public view returns(address) {\n        return address(nodes[_ownerAddress]);\n    }\n}\n\n/*\nThings that I need to test for:\n\n    ## Relationships\n    1. Everything compiles +\n    2. Node can be created +\n    3. Multiple addresses can create individual nodes +\n    4. A Node's address can be publicly found from owner's address. +\n    5. An address cannot create multiple nodes +\n    6. Node name/content/owner can be read +\n    7. The Name/content can be modified by owner\n    8. The name/content cannot be modified by non-owner\n    9. That weights can be modified correctly on each side +\n    10. Weights cannot be greater than 100 nor less than 0 +\n    11. Weights to oneself cannot be changed +\n    12. That relationship(s) can be added +\n    13. An address cannot add a relationship to a node they do not own +\n    14. A node cannot add a relationship to itself. +\n    15. The relationship must be a valid node.\n    16. A relationship can be deleted by owner\n    17. A relationship cannot be deleted by someone who is not the owner\n    18. Those relationships are publicly readable\n\n    ## Child Nodes\n    1. A Node can create a childnode\n    3. The children's name/content can be read by owner\n    4. The children's name/content can be read by the public\n    5. The name/content cannot be change by owner nor public (imutable)\n    6. A node can be abandoned\n    7. A node can be signed by another address.\n\n    ## Multiple children\n    1. A parent can create multiple children at the same level\n    2. A parent can create a childNode with a childNode as its parent\n    2. A parent can create a spanning tree of children\n    3. A node can be reparented if owner owns both previous parent and future parent\n\n\n\n*/",
  "sourcePath": "/home/brock/Code/Solidity/yvs/contracts/NodeFactory.sol",
  "compiler": {
    "name": "solc",
    "version": "0.5.16+commit.9c3226ce.Emscripten.clang"
  },
  "schemaVersion": "3.2.1",
  "updatedAt": "2020-07-09T03:47:09.167Z",
  "devdoc": {
    "methods": {}
  },
  "userdoc": {
    "methods": {}
  }
}